:020000040000FA
:100000001C280330A000E130A100E130A200000074
:10001000000000000000A20B0728A10B0528A00B80
:10002000032808000E30A0000000000000000000BF
:100030000000A00B1428080007309F00831603302F
:100040008500003086008312850186010515051C98
:1000500034281220051C34280F3086000120860128
:100060000518302812202728851C27281220851CD7
:100070002728013086000120033086000120073048
:10008000860001200F308600012086018518462851
:0400900012202728EB
:040094000034003400
:02400E00903FE1
:00000001FF
