:020000040000FA
:1000000035280230A200FF30A100A530A000A00BCF
:100010000728A10B0528A20B032808000630A20020
:10002000FF30A100FF30A000A00B1428A10B122864
:10003000A20B102808000C30A200FF30A100FF30F6
:10004000A000A00B2128A10B1F28A20B1D2808002F
:100050001E30A200FF30A100FF30A000A00B2E2810
:10006000A10B2C28A20B2A2808008316003085003B
:1000700000308600831207309F00850186018614B8
:1000800006161B2086100120012086140120012065
:1000900086100120012086140120012086100615FB
:1000A0000E2006118615061206171B2006130120C6
:1000B0000120061701200120061301200120061748
:1000C00001200120061386160E20861206168611C0
:0200D0003F28C7
:0400D20000340034C2
:02400E00103F61
:00000001FF
